:03000000020100FA
:03000300D23532C1
:02000B000D32B4
:03001300D23732AF
:10001B00C28E85013E853C0120280F797EC2A1D27C
:10002B00A0D2A18780D2280200477580FFC2A1C24F
:10003B00A0D2A119B96E0302002680E785013C8589
:08004B003E01758B00D28E32DC
:10010000750708787F76FF18B86EFA75A0007580BD
:10011000FFC2D5754300C2A2D2A2C2A2C237D21872
:10012000752600D288D28A7D0075892175A88FD264
:100130008C758D00758B00C228D28E75984075CB5A
:0A014000FF75CADC75C810020165E6
:050150007EFFDEFE222F
:10016500D2AFC234309807E599C298759000303700
:1001750003020100303553C235120680747112072F
:1001850030120780120750120700F4F5346535F573
:10019500365534F527303809D232120395C23280EC
:1001A50023303909D233120395C2338017303A050B
:1001B500120355800F303B051203208007303C04A5
:1001C500D2368000853435020165203608C37408AF
:1001D5009D500A800BC374009D5002800302016587
:1001E500C2AF20D535E58A54071207A0FE1207A035
:1001F500F5281202A00EEE1207A0F5291202A00E94
:10020500EE1207A0F52A1202A085287F85297E8592
:100215002A7D75047F750303D2D57D00120550A88C
:100225000418E52856F618E52956F618E52A56F66F
:1002350012060030340AC2D5C2363018031207D070
:05024500150402016533
:1002A00020180D7F083340060543C2B5D2B5DFF5EF
:0102B000222B
:10030000A8047A007E04E67F083340010ADFFA1869
:03031000DEF422F6
:10032000120550A804E528D333F52856F618E52918
:10033000D333F52956F618E52AD333F52A56F612A3
:0803400006002034020503222F
:10035500120550A804E528D313F52856F618E52903
:10036500D313F52956F618E52AD313F52A56F612AE
:080375000600203402150322EA
:10039500120550AF031FC3E52813F528C3E529133C
:1003A500F529C3E52A13F52ADFEC7520FF7521FF32
:1003B5007522FF3032051205108003120470AF0359
:1003C5001FE52023F520E52123F521E52223F5224C
:1003D500DFEF85202885212985222AA804E52856CE
:0F03E500F618E52956F618E52A56F612060022F4
:10047000204002C202204102C20A204202C21220CF
:100480004802C201204902C209204A02C21120507A
:0E04900002C200205102C208205202C21022F5
:10051000204002C210204102C208204202C2002034
:100520004802C211204902C209204A02C2012050D9
:0E05300002C212205102C20A205202C202224E
:10055000120300A8048630188631188632188633B4
:10056000A804E528F446F618E529F446F618E52A25
:0D057000F446F685282B85292C852A2D229E
:100600008A37120300EAB5370122D234E504F590A7
:10061000C3947E400B75A804D2AF3037FD020100B1
:10062000A804A63018A63118A63218A633852B28A0
:07063000852C29852D2A22EB
:07068000D2B6C2B7C2B622D8
:09070000C2B6C2B7D2B6D2B722CC
:100730007F08C2B63392B7D2B6DFF7C2B6D2B7D20D
:06074000B6A2B7C2B6220A
:09075000C2B7D2B6C2B6D2B7227C
:09077000D2B7D2B6C2B6D2B6224D
:0E0780007F08C2B6D2B6A2B733DFF7C2B622E8
:0307A000048322AD
:1007A300080B0E1114171A1DF7E3FFFBE3FFEBE32E
:1007B300FFF3E3FFF3F3FFFBE3FBEFEFE7FFE3FFFE
:1007D000796E09B97E028018B700F70543C2B5D219
:1007E000B5E9F808757FFFE6F70809B97FF980E0F9
:0107F00022E6
:00000001FF
